:020000040800F2
:1000000090040020A9010008C30D0008B70C0008E7
:10001000C10D0008E9020008B91100080000000045
:10002000000000000000000000000000C70D0008F4
:10003000EB02000800000000C50D0008C90D000813
:10004000C3010008C3010008C3010008C301000880
:10005000C3010008C3010008C3010008C301000870
:10006000C3010008C3010008C3010008C301000860
:10007000C3010008C3010008C3010008C301000850
:10008000C3010008C3010008C3010008000000000C
:10009000000000000000000000000000C301000894
:1000A000C3010008C3010008C3010008C301000820
:1000B000C3010008C3010008C3010008C301000810
:1000C000C3010008C3010008C3010008C301000800
:1000D000C3010008C3010008C301000800000000BC
:1000E000C3010008C3010008C301000800000000AC
:1000F000000000000000000000000000C301000834
:1001000000000000C3010008C3010008C30100088B
:1001100000000000000000000000000000000000DF
:10012000C3010008C3010008C3010008C30100089F
:10013000C3010008000000000000000000000000F3
:10014000000000000000000000000000C3010008E3
:10015000C3010008C3010008C3010008C30100086F
:10016000C3010008C30100080000000000000000F7
:10017000000000000000000000000000000000007F
:1001800000000000C30100080000000000000000A3
:10019000C3010008DFF80CD000F094F800480047D5
:1001A00019120008900400200648804706480047BE
:1001B000FEE7FEE7FEE7FEE7FEE7FEE7FEE7FEE717
:1001C000FEE7FEE7550E0008950100082DE9F05FF7
:1001D0000546002092469B468846064681464024B6
:1001E0001BE0284641464746224600F05AF853464F
:1001F0005A46C01A914110D311461846224600F0C3
:1002000041F82D1A67EB01084F46224601200021D4
:1002100000F038F817EB00094E41201EA4F101044C
:10022000DFDC484631462A464346BDE8F09F40EAB7
:1002300001039B0703D009E008C9121F08C0042A64
:10024000FAD203E011F8013B00F8013B521EF9D24B
:100250007047D2B201E000F8012B491EFBD2704773
:100260000022F6E710B513460A4604461946FFF782
:10027000F0FF204610BD421C10F8011B0029FBD1E5
:10028000801A7047202A04DB203A00FA02F100208D
:1002900070479140C2F1200320FA03F319439040C4
:1002A0007047202A04DB203A21FA02F0002170472F
:1002B00021FA02F3D040C2F12002914008431946CE
:1002C00070470000064C074D06E0E06840F001036F
:1002D00094E8070098471034AC42F6D3FFF75EFF6E
:1002E0003813000858130008FEE7704770470000F5
:1002F00070B5044600F0DCF80546601C02D00448E6
:100300000078044400F0D4F8401BA042FAD370BD3A
:10031000000000202DE9F84FDFF860B100224FF017
:1003200001084FF0030A4FF00F090BF1040E00BF54
:100330000B6808FA02F42340A3426ED14D68022DE7
:1003400001D0122D0ED1D50800EB850CDCF8205021
:100350005607F70E09FA07F6B5430E69BE402E435D
:10036000CCF82060066855000F790AFA05FC07F002
:10037000030726EA0C06AF40374307604E68012E9C
:1003800005D0022E03D0112E01D0122E0ED1866878
:10039000CF6826EA0C06AF40374387604668A6431D
:1003A0000C79C4F30014944034434460C6688C68EC
:1003B00026EA0C06AC403443C4604C68E40056D5D1
:1003C0002F4C256845F480452560246822F00305FC
:1003D00004F4804400942B4C2E19D6F80848950755
:1003E0002F0F09FA07F5AC43274DA84201D100258C
:1003F00015E0264DA84201D1012510E0244DA84268
:1004000001D102250BE0234DA84201D1032506E0CE
:10041000214DA84202D1042501E028E00725BD4076
:100420002543C6F80858DBF800405D464E689C43FB
:10043000F60300D51C432C60DEF8004075464E687C
:100440009C43B60300D51C432C600C4D08352C682A
:100450004E689C43F60200D51C432C60074D0C35BA
:100460002C684E689C43B60200D51C432C60521C7D
:10047000102AFFF45DAFBDE8F88F0000003C01409A
:1004800044380240003001400000024000040240B5
:1004900000080240000C02400010024000690840C1
:1004A00000D0012070470AB1816170470904FBE761
:1004B0000148806870470000000000200248816801
:1004C0000278114481607047000000200B4810B58D
:1004D000016841F400710160016841F480610160CC
:1004E000016841F480710160032000F063F800208E
:1004F00000F006F800F024F8002010BD003C024097
:1005000070B50D4D04464FF47A712878B1FBF0F0C8
:100510000A490968B1FBF0F000F0D4FA48B9102C90
:1005200007D200222146501E00F024F800206C6003
:1005300070BD012070BD0000000000200C000020F4
:100540000B4882B0016841F480410160006800F40A
:10055000804000900648001F016841F08051016012
:10056000006800F080500090072002B000F022B830
:1005700044380240F0B40E4B1B680C46C3F3022310
:10058000C3F10705042D00D90425191D072901D23F
:10059000002300E0DB1E012606FA05F1491E21407A
:1005A00099409E40761E16403143F0BC00F015BEC7
:1005B0000CED00E0064900F0070208684FF6FF0363
:1005C000184040EA0220034A1043086070470000C8
:1005D0000CED00E00000FA052DE9F0470E4605009D
:1005E00065D0DFF81481D8F80000F7B200F00F00F2
:1005F000B04207D288F80070D8F8000000F00F0071
:10060000B04254D128683D4C810712D5400703D52C
:10061000206840F4E05020602878000703D5206867
:1006200040F4604020602068A96820F0F000084392
:1006300020602878C0072DD0304968680839012823
:1006400012D0022813D0032811D009688907002985
:100650002DDA216821F0030101432160FFF728FF13
:10066000814641F2883A0EE009688903EFE709689C
:100670008901ECE7FFF71CFFA0EB0901514502D906
:100680000320BDE8F0872068696800F00C00B0EB3B
:10069000810FEFD1D8F80010404601F00F01B142B0
:1006A00007D90770006800F00F00B04201D00120A8
:1006B000E7E72878400705D52068E96820F4E0508E
:1006C000084320602878000706D52068296920F4AF
:1006D000604040EAC100206000F036F82168084A16
:1006E000C1F30311515CC840064908600020FFF7C0
:1006F00007FF0020C5E70000003C02400838024028
:10070000201300080C00002004480549006809680F
:10071000044AC1F38221515CC84070470C0000209C
:100720000838024030130008044805490068096889
:10073000044AC1F34231515CC84070470C000020AC
:100740000838024030130008154810B5006810F052
:100750000C02144813D04110042A0FD0082A0ED1DD
:100760000F4C241F2268236802F03F025B0207D56A
:100770002068C0F38810A0FB010106E0084610BD08
:100780002168C1F38811A1FB00010023FFF71EFDC2
:100790002168C1F30141491C4900B0FBF1F010BDD3
:1007A000083802400024F4002DE9F84F050076D007
:1007B0002878DFF8F8B2BE4CC00749D0DBF800104B
:1007C0005846C1F38101012908D00068C0F38100B7
:1007D00002280AD1201D0068400206D52068800347
:1007E00036D568680028E2D032E06868B0F5803F0E
:1007F00010D0B0F5A02F206810D020F480302060F9
:10080000206820F4802020606868A0B1FFF750FEC7
:1008100006460CE0206840F48030F4E740F4802085
:100820002060F7E7FFF744FE801B642873D8206838
:100830008003F7D50CE0FFF73BFE064605E000BF5E
:10084000FFF736FE801B6428F0D820688003F7D4B9
:100850002878DFF8608280074FF000093ED5DBF88A
:100860000010584611F00C0F09D00068C0F3810049
:1008700002280BD18D48001F0068400206D4206872
:10088000800715D5E868012809D111E0E868B8B1FA
:100890000120C8F80000FFF70BFE064605E002E164
:1008A000FFF706FE801B0228C0D820688007F7D516
:1008B0002068296920F0F80040EAC10020600DE0BE
:1008C000C8F80090FFF7F4FD064604E0FFF7F0FDDE
:1008D000801B02281FD820688007F7D428780007DB
:1008E00022D5724E744869696C3671B1012101607C
:1008F000FFF7DEFD074604E0FFF7DAFDC01B022824
:1009000009D830688007F7D50EE0C0F80090FFF7EF
:10091000CFFD074605E083E0FFF7CAFDC01B0228B4
:100920007ED830688007F7D42878400768D5DFF88C
:100930007CA100270AF1380ADAF80000C0000BD4C5
:10094000DAF8001041F08051CAF80010DAF800001F
:10095000012700F080500090584E3068C00510D438
:10096000306840F480703060FFF7A2FD009005E031
:10097000FFF79EFD0099401A022851D83068C00543
:10098000F6D54A4EA868683601280FD00528306889
:1009900010D020F001003060306820F0040030609A
:1009A000A868B8B1FFF784FD00900FE0306840F010
:1009B0000100F4E740F004003060F7E7FFF778FD4E
:1009C0000099411A41F28830814264D8306880072A
:1009D000F4D50EE0FFF76CFD009007E0FFF768FD2F
:1009E0000099411A41F28830814254D8306880071A
:1009F000F4D42FB1DAF8001021F08051CAF80010B9
:100A0000A869C0B3DBF80010C1F3810102294AD004
:100A10000228484607D0C8F86000FFF749FD00E00B
:100A200039E005463AE04746C8F86000FFF740FD68
:100A3000064604E0FFF73CFD801B02282BD8206807
:100A40008001F7D4D5E907010843A96A1C4A49087F
:100A500002EB01416A6A41EA8211084395F82C10C1
:100A600040EA01611148001F016001203866FFF76C
:100A70001FFD054605E014E0FFF71AFD401B0228A4
:100A800009D820688001F7D50BE000BFFFF710FD03
:100A9000401B022802D90320BDE8F88F206880019E
:100AA000F4D40020F8E70120F6E7000008380240FF
:100AB0000038024000004742800E4742007000406C
:100AC0000000FFFF10B5401EB0F1807F01D3012070
:100AD00010BD4FF0E02460610F21601700F07DFB36
:100AE0000020A06107202061002010BD70B5040027
:100AF00004D094F83900002510B106E0012070BD43
:100B000084F83850204600F023F8242084F8390077
:100B10002068C16821F40051C160204600F0C4F98A
:100B20002068016921F4904101612068416921F048
:100B30002A0141612068C16841F40051C160E56348
:100B4000202084F8390084F83A00002070BD0000AD
:100B500070B586B0044614216846FFF781FB234E2A
:100B6000236800222249022407252248B3421CD1CF
:100B70001F4A1432136843F010031360126802F026
:100B8000100205920A6842F001020A60096801F049
:100B9000010105914FF4C061CDE9001401210291DA
:100BA0000321CDE9031569461BE0134EB3421AD168
:100BB0000F4B10331E6846F400361E601B6803F4AA
:100BC000003305930B6843F001030B60096801F0E3
:100BD000010105910C210091CDE90142CDE90325E8
:100BE0006946FFF797FB06B070BD0000001001409A
:100BF0003038024000000240004400402DE9F84334
:100C0000044690F839001F4616460D46202850D15C
:100C1000A5B19EB194F8380001284AD0012084F88B
:100C200038004FF00008C4F83C80212084F83900D7
:100C3000FFF73EFCA6848146E68426E00120BDE85D
:100C4000F883E08C401EE084A0684B46B0F5805FDE
:100C50004FF000024FF080012046009703D000F0D3
:100C600079FAE8B90DE000F075FAC8B9288821686A
:100C7000C0F308004860206908B16D1C05E0AD1C98
:100C800003E0216815F8010B4860E08C0028D8D1FA
:100C90004B46002240212046009700F05BFA08B145
:100CA0000320CCE7202084F8390084F83880002025
:100CB000C5E70220C3E7FEE730B587B014216846D8
:100CC000FFF7CEFA1E480024016841F004010160DC
:100CD000016801F004010591016841F080010160A3
:100CE000016801F080010591016841F00101016096
:100CF000016801F001010591016841F00201016004
:100D00000068104D00F002000590002220212846C6
:100D1000FFF7C9FB4FF4005000900B48CDE90104E8
:100D200069460A48FFF7F6FA202000900120CDE935
:100D30000104694628460394FFF7ECFA07B030BD7A
:100D4000303802400000024000002110000802403C
:100D50000C4810B50A4901604FF41641416000216A
:100D600081600C22C160C0E904128161C161FFF79A
:100D7000BDFE002803D0BDE81040FFF7B7BA10BD94
:100D800000100140100000200C4810B50A49016015
:100D90004FF4E1314160002181600C22C160C0E963
:100DA00004128161C161FFF7A1FE002803D0BDE8F4
:100DB0001040FFF79BBA10BD0044004050000020D7
:100DC000FEE7704770477047FFF778BB30B593B0C8
:100DD00030216846FFF744FA14210CA8FFF740FAC7
:100DE0001A480024016841F080510160006800F059
:100DF000805011901648016821F4404141F40041AF
:100E000001600068022500F4404011900120039029
:100E10001020009506950490CDE907404FF4A87086
:100E2000099004200A9007200B906846FFF7BCFC4D
:100E30000F20CDE90C05E802CDE90E4002210CA8F7
:100E40001094FFF7C9FB13B030BD000040380240DA
:100E5000007000401048016841F4700101600F48C3
:100E6000016841F0010101600C4A00210832116063
:100E700002680B4B1A400260031D0A4A1A6002689E
:100E800022F48022026005480C30016002495806B5
:100E9000803908607047000088ED00E000380240AB
:100EA000FFFFF6FE103000242DE9F04104460068F3
:100EB0000169E26821F44051114301612169A06890
:100EC000E26908436169114322680843D16849F225
:100ED0000C6399430143D16020684169A26921F400
:100EE000407111434161E2696425B2F5004F9748B2
:100EF000974922684FF032083FD08A4201D082429F
:100F00007CD1FFF711FC00EBC00101EB0010616820
:100F10008900B0FBF1F6FFF707FC00EBC00101EB25
:100F2000001061688900B0FBF1F0B0FBF5F06FF0E4
:100F30001801484306EB800108EB0110B0FBF5F007
:100F400000F0F006FFF7F0FB00EBC00101EB001032
:100F500061688900B0FBF1F0B0FBF5F006EB00161C
:100F6000FFF7E2FB00EBC00101EB001061688900B4
:100F7000B0FBF1F7FFF7D8FBD2E08A4201D0824202
:100F80003DD1FFF7D1FB00EBC00101EB0010616820
:100F90004900B0FBF1F0B0FBF5F00601FFF7C4FB30
:100FA00000EBC00101EB001061684900B0FBF1F7F4
:100FB000FFF7BAFB00EBC00101EB001061684900CC
:100FC000B0FBF1F0B0FBF5F06FF01801484307EB10
:100FD000800108EBC100B0FBF5F000F0F80006EB73
:100FE0004006FFF7A1FB00EBC00101EB00106168B8
:100FF0004900B0FBF1F7FFF797FB3CE055E0FFF746
:1010000083FB00EBC00101EB001061684900B0FBFD
:10101000F1F0B0FBF5F00601FFF776FB00EBC00145
:1010200001EB001061684900B0FBF1F7FFF76CFBC2
:1010300000EBC00101EB001061684900B0FBF1F06A
:10104000B0FBF5F06FF01801484307EB800108EBA7
:10105000C100B0FBF5F000F0F80006EB4006FFF72A
:1010600053FB00EBC00101EB001061684900B0FBCD
:10107000F1F7FFF749FB00EBC00101EB00106168DD
:101080004900B0FBF1F0B0FBF5F06FF018014843F8
:1010900007EB800108EBC100B0FBF5F000F00700A2
:1010A000216830448860BDE8F081FFF72DFB00EB3C
:1010B000C00101EB001061688900B0FBF1F6FFF799
:1010C00023FB00EBC00101EB001061688900B0FB5D
:1010D000F1F0B0FBF5F06FF01801484306EB80012A
:1010E00008EB0110B0FBF5F000F0F006FFF70CFB89
:1010F00000EBC00101EB001061688900B0FBF1F06A
:10110000B0FBF5F006EB0016FFF7FEFA00EBC001AE
:1011100001EB001061688900B0FBF1F7FFF7F4FA0A
:1011200000EBC00101EB001061688900B0FBF1F039
:10113000B0FBF5F06FF01801484307EB800108EBB6
:101140000110B0FBF5F000F00F00A9E7001401401A
:10115000001001402DE9F041984617460E4604461E
:10116000069D1DE0681C1BD02DB1FFF7A1F9A0EB77
:101170000800A84214D92068C16821F4D071C16068
:101180002068416921F001014161202084F8390083
:1011900084F83A00002084F838000320BDE8F0818C
:1011A0002068006836EA000004D00020B842D9D098
:1011B0000020F3E70120F9E7FEE70FB410B5129C19
:1011C0002046FFF758F882B24FF47A73214602A8FE
:1011D000FFF714FD10BC5DF814FB0907090E002889
:1011E00004DB00F1E02080F80014704700F00F00ED
:1011F00000F1E02080F8141D704702E008C8121FBB
:1012000008C1002AFAD170477047002001E001C1EF
:10121000121F002AFBD170479EB0FFF757F9FFF766
:10122000D5FDFFF749FDFFF7AFFDFFF791FD354E07
:101230004FF4005529463046FFF730F90028F9D120
:10124000262231490DA8FEF7F2FF2F4CE08CADF8B5
:101250005A00A06A1790A08DADF86000E08DADF83F
:101260006200092204F1300119A8FEF7E0FF94F8AA
:1012700039008DF86D0094F83A008DF86E00E06B3F
:101280001C9022A00C90302211A96846FEF7CFFFD7
:101290000DF1340C9CE80F00FFF78FFF26221F4949
:1012A0000DA8FEF7C4FF1D4CE08CADF85A00A06AF3
:1012B0001790A08DADF86000E08DADF862000922B6
:1012C00004F1300119A8FEF7B2FF94F839008DF847
:1012D0006D0094F83A008DF86E00E06B1C900BA046
:1012E0000C90302211A96846FEF7A1FF0DF1340CD5
:1012F0009CE80F00FFF761FF4FF47A70FEF7F8FFEC
:1013000098E70000000802401000002048656C6C5F
:101310006F20576F726C64210000000050000020A5
:101320000000000000000000010203040607080995
:101330000000000001020304581300080000002010
:1013400010000000FA1100086813000810000020C7
:10135000800400000A1200080100000010000000D4
:08136000000000000024F4006D
:040000050800019559
:00000001FF
